{
  "contractName": "MeeloOptionFactory",
  "abi": [
    {
      "anonymous": false,
      "inputs": [
        {
          "indexed": false,
          "internalType": "address",
          "name": "optionAddress",
          "type": "address"
        },
        {
          "indexed": false,
          "internalType": "address",
          "name": "creator",
          "type": "address"
        },
        {
          "indexed": true,
          "internalType": "address",
          "name": "underlyingAsset",
          "type": "address"
        },
        {
          "indexed": true,
          "internalType": "address",
          "name": "strikeAsset",
          "type": "address"
        },
        {
          "indexed": false,
          "internalType": "uint256",
          "name": "strikePrice",
          "type": "uint256"
        },
        {
          "indexed": false,
          "internalType": "uint256",
          "name": "expiry",
          "type": "uint256"
        },
        {
          "indexed": false,
          "internalType": "uint256",
          "name": "exerciseWindowDuration",
          "type": "uint256"
        },
        {
          "indexed": false,
          "internalType": "enum IMeeloOption.OptionType",
          "name": "optionType",
          "type": "uint8"
        },
        {
          "indexed": false,
          "internalType": "enum IMeeloOption.ExerciseType",
          "name": "exerciseType",
          "type": "uint8"
        },
        {
          "indexed": false,
          "internalType": "enum IMeeloOption.UnderlyingAssetType",
          "name": "underlyingAssetType",
          "type": "uint8"
        }
      ],
      "name": "MeeloOptionCreated",
      "type": "event"
    },
    {
      "inputs": [
        {
          "internalType": "uint256",
          "name": "",
          "type": "uint256"
        }
      ],
      "name": "meeloOptions",
      "outputs": [
        {
          "internalType": "address",
          "name": "",
          "type": "address"
        }
      ],
      "stateMutability": "view",
      "type": "function"
    },
    {
      "inputs": [
        {
          "internalType": "string",
          "name": "name",
          "type": "string"
        },
        {
          "internalType": "string",
          "name": "symbol",
          "type": "string"
        },
        {
          "internalType": "address",
          "name": "underlyingAsset",
          "type": "address"
        },
        {
          "internalType": "address",
          "name": "strikeAsset",
          "type": "address"
        },
        {
          "internalType": "uint256",
          "name": "strikePrice",
          "type": "uint256"
        },
        {
          "internalType": "uint256",
          "name": "expiry",
          "type": "uint256"
        },
        {
          "internalType": "uint256",
          "name": "exerciseWindowDuration",
          "type": "uint256"
        },
        {
          "internalType": "enum IMeeloOption.OptionType",
          "name": "optionType",
          "type": "uint8"
        },
        {
          "internalType": "enum IMeeloOption.ExerciseType",
          "name": "exerciseType",
          "type": "uint8"
        },
        {
          "internalType": "enum IMeeloOption.UnderlyingAssetType",
          "name": "underlyingAssetType",
          "type": "uint8"
        }
      ],
      "name": "createMeeloOption",
      "outputs": [
        {
          "internalType": "contract IMeeloOption",
          "name": "",
          "type": "address"
        }
      ],
      "stateMutability": "nonpayable",
      "type": "function"
    }
  ],
  "bytecode": "0x608060405234801561001057600080fd5b50612ef3806100206000396000f3fe60806040523480156200001157600080fd5b50600436106200003a5760003560e01c80636561114b146200003f578063d3f7c5421462000075575b600080fd5b6200005d60048036038101906200005791906200032a565b620000ab565b6040516200006c9190620005e2565b60405180910390f35b6200009360048036038101906200008d91906200045e565b620001eb565b604051620000a2919062000537565b60405180910390f35b6000808b8b8b8b8b8b8b8b8b8b604051620000c6906200022b565b620000db9a99989796959493929190620005ff565b604051809103906000f080158015620000f8573d6000803e3d6000fd5b50905060008190506000819080600181540180825580915050600190039060005260206000200160009091909190916101000a81548173ffffffffffffffffffffffffffffffffffffffff021916908373ffffffffffffffffffffffffffffffffffffffff1602179055508973ffffffffffffffffffffffffffffffffffffffff168b73ffffffffffffffffffffffffffffffffffffffff167f858a9990eb3d1112674005b97be53560ee2a997d685adbc7bbcdae9e2357ac4e83338d8d8d8d8d8d604051620001d098979695949392919062000554565b60405180910390a381925050509a9950505050505050505050565b60008181548110620001fc57600080fd5b906000526020600020016000915054906101000a900473ffffffffffffffffffffffffffffffffffffffff1681565b6124fa80620009c483390190565b6000620002506200024a84620006e6565b620006bd565b9050828152602081018484840111156200026f576200026e620008f7565b5b6200027c84828562000819565b509392505050565b60008135905062000295816200095c565b92915050565b600081359050620002ac8162000976565b92915050565b600081359050620002c38162000987565b92915050565b600081359050620002da8162000998565b92915050565b600082601f830112620002f857620002f7620008f2565b5b81356200030a84826020860162000239565b91505092915050565b6000813590506200032481620009a9565b92915050565b6000806000806000806000806000806101408b8d03121562000351576200035062000901565b5b60008b013567ffffffffffffffff811115620003725762000371620008fc565b5b620003808d828e01620002e0565b9a505060208b013567ffffffffffffffff811115620003a457620003a3620008fc565b5b620003b28d828e01620002e0565b9950506040620003c58d828e0162000284565b9850506060620003d88d828e0162000284565b9750506080620003eb8d828e0162000313565b96505060a0620003fe8d828e0162000313565b95505060c0620004118d828e0162000313565b94505060e0620004248d828e01620002b2565b935050610100620004388d828e016200029b565b9250506101206200044c8d828e01620002c9565b9150509295989b9194979a5092959850565b60006020828403121562000477576200047662000901565b5b6000620004878482850162000313565b91505092915050565b6200049b8162000738565b82525050565b620004ac81620007b5565b82525050565b620004bd81620007dd565b82525050565b620004ce81620007f1565b82525050565b620004df8162000805565b82525050565b6000620004f2826200071c565b620004fe818562000727565b93506200051081856020860162000828565b6200051b8162000906565b840191505092915050565b6200053181620007ab565b82525050565b60006020820190506200054e600083018462000490565b92915050565b6000610100820190506200056c600083018b62000490565b6200057b602083018a62000490565b6200058a604083018962000526565b62000599606083018862000526565b620005a8608083018762000526565b620005b760a0830186620004c3565b620005c660c0830185620004b2565b620005d560e0830184620004d4565b9998505050505050505050565b6000602082019050620005f96000830184620004a1565b92915050565b60006101408201905081810360008301526200061c818d620004e5565b9050818103602083015262000632818c620004e5565b905062000643604083018b62000490565b62000652606083018a62000490565b62000661608083018962000526565b6200067060a083018862000526565b6200067f60c083018762000526565b6200068e60e0830186620004c3565b6200069e610100830185620004b2565b620006ae610120830184620004d4565b9b9a5050505050505050505050565b6000620006c9620006dc565b9050620006d782826200085e565b919050565b6000604051905090565b600067ffffffffffffffff821115620007045762000703620008c3565b5b6200070f8262000906565b9050602081019050919050565b600081519050919050565b600082825260208201905092915050565b600062000745826200078b565b9050919050565b60008190506200075c8262000917565b919050565b600081905062000771826200092e565b919050565b6000819050620007868262000945565b919050565b600073ffffffffffffffffffffffffffffffffffffffff82169050919050565b6000819050919050565b6000620007c282620007c9565b9050919050565b6000620007d6826200078b565b9050919050565b6000620007ea826200074c565b9050919050565b6000620007fe8262000761565b9050919050565b6000620008128262000776565b9050919050565b82818337600083830152505050565b60005b83811015620008485780820151818401526020810190506200082b565b8381111562000858576000848401525b50505050565b620008698262000906565b810181811067ffffffffffffffff821117156200088b576200088a620008c3565b5b80604052505050565b7f4e487b7100000000000000000000000000000000000000000000000000000000600052602160045260246000fd5b7f4e487b7100000000000000000000000000000000000000000000000000000000600052604160045260246000fd5b600080fd5b600080fd5b600080fd5b600080fd5b6000601f19601f8301169050919050565b600281106200092b576200092a62000894565b5b50565b6002811062000942576200094162000894565b5b50565b6002811062000959576200095862000894565b5b50565b620009678162000738565b81146200097357600080fd5b50565b600281106200098457600080fd5b50565b600281106200099557600080fd5b50565b60028110620009a657600080fd5b50565b620009b481620007ab565b8114620009c057600080fd5b5056fe6101806040523480156200001257600080fd5b50604051620024fa380380620024fa8339818101604052810190620000389190620005ab565b89898160039080519060200190620000529291906200040a565b5080600490805190602001906200006b9291906200040a565b5050506200009a8873ffffffffffffffffffffffffffffffffffffffff16620003df60201b620009cf1760201c565b620000dc576040517f08c379a0000000000000000000000000000000000000000000000000000000008152600401620000d390620007c4565b60405180910390fd5b620001088773ffffffffffffffffffffffffffffffffffffffff16620003df60201b620009cf1760201c565b6200014a576040517f08c379a00000000000000000000000000000000000000000000000000000000081526004016200014190620007e6565b60405180910390fd5b8673ffffffffffffffffffffffffffffffffffffffff168873ffffffffffffffffffffffffffffffffffffffff161415620001bc576040517f08c379a0000000000000000000000000000000000000000000000000000000008152600401620001b390620007a2565b60405180910390fd5b42851162000201576040517f08c379a0000000000000000000000000000000000000000000000000000000008152600401620001f89062000808565b60405180910390fd5b81600181111562000217576200021662000a06565b5b60e08160018111156200022f576200022e62000a06565b5b60f81b81525050846101408181525050600080600181111562000257576200025662000a06565b5b8360018111156200026d576200026c62000a06565b5b1415620002df5762015180851015620002bd576040517f08c379a0000000000000000000000000000000000000000000000000000000008152600401620002b4906200082a565b60405180910390fd5b620002d78587620003f260201b620009e21790919060201c565b9050620002e3565b4290505b80610160818152505083600181111562000302576200030162000a06565b5b60c08160018111156200031a576200031962000a06565b5b60f81b815250508873ffffffffffffffffffffffffffffffffffffffff1660808173ffffffffffffffffffffffffffffffffffffffff1660601b815250508160018111156200036e576200036d62000a06565b5b61010081600181111562000387576200038662000a06565b5b60f81b815250508773ffffffffffffffffffffffffffffffffffffffff1660a08173ffffffffffffffffffffffffffffffffffffffff1660601b81525050866101208181525050505050505050505050505062000c84565b600080823b905060008111915050919050565b60008183620004029190620008bc565b905092915050565b82805462000418906200096b565b90600052602060002090601f0160209004810192826200043c576000855562000488565b82601f106200045757805160ff191683800117855562000488565b8280016001018555821562000488579182015b82811115620004875782518255916020019190600101906200046a565b5b5090506200049791906200049b565b5090565b5b80821115620004b65760008160009055506001016200049c565b5090565b6000620004d1620004cb8462000875565b6200084c565b905082815260208101848484011115620004f057620004ef62000a98565b5b620004fd84828562000935565b509392505050565b600081519050620005168162000c1d565b92915050565b6000815190506200052d8162000c37565b92915050565b600081519050620005448162000c48565b92915050565b6000815190506200055b8162000c59565b92915050565b600082601f83011262000579576200057862000a93565b5b81516200058b848260208601620004ba565b91505092915050565b600081519050620005a58162000c6a565b92915050565b6000806000806000806000806000806101408b8d031215620005d257620005d162000aa2565b5b60008b015167ffffffffffffffff811115620005f357620005f262000a9d565b5b620006018d828e0162000561565b9a505060208b015167ffffffffffffffff81111562000625576200062462000a9d565b5b620006338d828e0162000561565b9950506040620006468d828e0162000505565b9850506060620006598d828e0162000505565b97505060806200066c8d828e0162000594565b96505060a06200067f8d828e0162000594565b95505060c0620006928d828e0162000594565b94505060e0620006a58d828e0162000533565b935050610100620006b98d828e016200051c565b925050610120620006cd8d828e016200054a565b9150509295989b9194979a5092959850565b6000620006ee603e83620008ab565b9150620006fb8262000ab8565b604082019050919050565b600062000715602f83620008ab565b9150620007228262000b07565b604082019050919050565b60006200073c602b83620008ab565b9150620007498262000b56565b604082019050919050565b600062000763601b83620008ab565b9150620007708262000ba5565b602082019050919050565b60006200078a603d83620008ab565b9150620007978262000bce565b604082019050919050565b60006020820190508181036000830152620007bd81620006df565b9050919050565b60006020820190508181036000830152620007df8162000706565b9050919050565b6000602082019050818103600083015262000801816200072d565b9050919050565b60006020820190508181036000830152620008238162000754565b9050919050565b6000602082019050818103600083015262000845816200077b565b9050919050565b6000620008586200086b565b9050620008668282620009a1565b919050565b6000604051905090565b600067ffffffffffffffff82111562000893576200089262000a64565b5b6200089e8262000aa7565b9050602081019050919050565b600082825260208201905092915050565b6000620008c9826200092b565b9150620008d6836200092b565b925082821015620008ec57620008eb620009d7565b5b828203905092915050565b600062000904826200090b565b9050919050565b600073ffffffffffffffffffffffffffffffffffffffff82169050919050565b6000819050919050565b60005b838110156200095557808201518184015260208101905062000938565b8381111562000965576000848401525b50505050565b600060028204905060018216806200098457607f821691505b602082108114156200099b576200099a62000a35565b5b50919050565b620009ac8262000aa7565b810181811067ffffffffffffffff82111715620009ce57620009cd62000a64565b5b80604052505050565b7f4e487b7100000000000000000000000000000000000000000000000000000000600052601160045260246000fd5b7f4e487b7100000000000000000000000000000000000000000000000000000000600052602160045260246000fd5b7f4e487b7100000000000000000000000000000000000000000000000000000000600052602260045260246000fd5b7f4e487b7100000000000000000000000000000000000000000000000000000000600052604160045260246000fd5b600080fd5b600080fd5b600080fd5b600080fd5b6000601f19601f8301169050919050565b7f4d65656c6f4f7074696f6e3a20737472696b65206173736574202620756e646560008201527f726c79696e672061737365742063616e2774206265207468652073616d650000602082015250565b7f4d65656c6f4f7074696f6e3a20756e6465726c79696e6720617373657420697360008201527f206e6f74206120636f6e74726163740000000000000000000000000000000000602082015250565b7f4d65656c6f4f7074696f6e3a20737472696b65206173736574206973206e6f7460008201527f206120636f6e7472616374000000000000000000000000000000000000000000602082015250565b7f4d65656c6f4f7074696f6e3a20696e76616c6964206578706972790000000000600082015250565b7f4d65656c6f4f7074696f6e3a206d696e696d756d206f7074696f6e206578657260008201527f636973652077696e646f77206475726174696f6e206973203120646179000000602082015250565b62000c2881620008f7565b811462000c3457600080fd5b50565b6002811062000c4557600080fd5b50565b6002811062000c5657600080fd5b50565b6002811062000c6757600080fd5b50565b62000c75816200092b565b811462000c8157600080fd5b50565b60805160601c60a05160601c60c05160f81c60e05160f81c6101005160f81c61012051610140516101605161180162000cf9600039600061068f01526000610965015260006108ba015260006105bf01526000610989015260006109ad01526000610490015260006106fb01526118016000f3fe608060405234801561001057600080fd5b50600436106101215760003560e01c806370a08231116100ad578063c52987cf11610071578063c52987cf14610336578063dd62ed3e14610354578063e184c9be14610384578063f3eb8cab146103a2578063ffd9eedb146103c057610121565b806370a082311461026a5780637158da7c1461029a57806395d89b41146102b8578063a457c2d7146102d6578063a9059cbb1461030657610121565b806323b872dd116100f457806323b872dd146101b0578063313ce567146101e057806332707700146101fe578063395093511461021c5780636125f0b61461024c57610121565b806306fdde0314610126578063095ea7b31461014457806317d69bc81461017457806318160ddd14610192575b600080fd5b61012e6103de565b60405161013b919061118e565b60405180910390f35b61015e60048036038101906101599190610f30565b610470565b60405161016b9190611122565b60405180910390f35b61017c61048e565b6040516101899190611107565b60405180910390f35b61019a6104b2565b6040516101a79190611290565b60405180910390f35b6101ca60048036038101906101c59190610edd565b6104bc565b6040516101d79190611122565b60405180910390f35b6101e86105b4565b6040516101f591906112ab565b60405180910390f35b6102066105bd565b6040516102139190611173565b60405180910390f35b61023660048036038101906102319190610f30565b6105e1565b6040516102439190611122565b60405180910390f35b61025461068d565b6040516102619190611290565b60405180910390f35b610284600480360381019061027f9190610e70565b6106b1565b6040516102919190611290565b60405180910390f35b6102a26106f9565b6040516102af9190611107565b60405180910390f35b6102c061071d565b6040516102cd919061118e565b60405180910390f35b6102f060048036038101906102eb9190610f30565b6107af565b6040516102fd9190611122565b60405180910390f35b610320600480360381019061031b9190610f30565b61089a565b60405161032d9190611122565b60405180910390f35b61033e6108b8565b60405161034b9190611290565b60405180910390f35b61036e60048036038101906103699190610e9d565b6108dc565b60405161037b9190611290565b60405180910390f35b61038c610963565b6040516103999190611290565b60405180910390f35b6103aa610987565b6040516103b7919061113d565b60405180910390f35b6103c86109ab565b6040516103d59190611158565b60405180910390f35b6060600380546103ed90611463565b80601f016020809104026020016040519081016040528092919081815260200182805461041990611463565b80156104665780601f1061043b57610100808354040283529160200191610466565b820191906000526020600020905b81548152906001019060200180831161044957829003601f168201915b5050505050905090565b600061048461047d6109f8565b8484610a00565b6001905092915050565b7f000000000000000000000000000000000000000000000000000000000000000081565b6000600254905090565b60006104c9848484610bcb565b6000600160008673ffffffffffffffffffffffffffffffffffffffff1673ffffffffffffffffffffffffffffffffffffffff16815260200190815260200160002060006105146109f8565b73ffffffffffffffffffffffffffffffffffffffff1673ffffffffffffffffffffffffffffffffffffffff16815260200190815260200160002054905082811015610594576040517f08c379a000000000000000000000000000000000000000000000000000000000815260040161058b90611210565b60405180910390fd5b6105a8856105a06109f8565b858403610a00565b60019150509392505050565b60006012905090565b7f000000000000000000000000000000000000000000000000000000000000000081565b60006106836105ee6109f8565b8484600160006105fc6109f8565b73ffffffffffffffffffffffffffffffffffffffff1673ffffffffffffffffffffffffffffffffffffffff16815260200190815260200160002060008873ffffffffffffffffffffffffffffffffffffffff1673ffffffffffffffffffffffffffffffffffffffff1681526020019081526020016000205461067e91906112e2565b610a00565b6001905092915050565b7f000000000000000000000000000000000000000000000000000000000000000081565b60008060008373ffffffffffffffffffffffffffffffffffffffff1673ffffffffffffffffffffffffffffffffffffffff168152602001908152602001600020549050919050565b7f000000000000000000000000000000000000000000000000000000000000000081565b60606004805461072c90611463565b80601f016020809104026020016040519081016040528092919081815260200182805461075890611463565b80156107a55780601f1061077a576101008083540402835291602001916107a5565b820191906000526020600020905b81548152906001019060200180831161078857829003601f168201915b5050505050905090565b600080600160006107be6109f8565b73ffffffffffffffffffffffffffffffffffffffff1673ffffffffffffffffffffffffffffffffffffffff16815260200190815260200160002060008573ffffffffffffffffffffffffffffffffffffffff1673ffffffffffffffffffffffffffffffffffffffff1681526020019081526020016000205490508281101561087b576040517f08c379a000000000000000000000000000000000000000000000000000000000815260040161087290611270565b60405180910390fd5b61088f6108866109f8565b85858403610a00565b600191505092915050565b60006108ae6108a76109f8565b8484610bcb565b6001905092915050565b7f000000000000000000000000000000000000000000000000000000000000000081565b6000600160008473ffffffffffffffffffffffffffffffffffffffff1673ffffffffffffffffffffffffffffffffffffffff16815260200190815260200160002060008373ffffffffffffffffffffffffffffffffffffffff1673ffffffffffffffffffffffffffffffffffffffff16815260200190815260200160002054905092915050565b7f000000000000000000000000000000000000000000000000000000000000000081565b7f000000000000000000000000000000000000000000000000000000000000000081565b7f000000000000000000000000000000000000000000000000000000000000000081565b600080823b905060008111915050919050565b600081836109f09190611338565b905092915050565b600033905090565b600073ffffffffffffffffffffffffffffffffffffffff168373ffffffffffffffffffffffffffffffffffffffff161415610a70576040517f08c379a0000000000000000000000000000000000000000000000000000000008152600401610a6790611250565b60405180910390fd5b600073ffffffffffffffffffffffffffffffffffffffff168273ffffffffffffffffffffffffffffffffffffffff161415610ae0576040517f08c379a0000000000000000000000000000000000000000000000000000000008152600401610ad7906111d0565b60405180910390fd5b80600160008573ffffffffffffffffffffffffffffffffffffffff1673ffffffffffffffffffffffffffffffffffffffff16815260200190815260200160002060008473ffffffffffffffffffffffffffffffffffffffff1673ffffffffffffffffffffffffffffffffffffffff168152602001908152602001600020819055508173ffffffffffffffffffffffffffffffffffffffff168373ffffffffffffffffffffffffffffffffffffffff167f8c5be1e5ebec7d5bd14f71427d1e84f3dd0314c0f7b2291e5b200ac8c7c3b92583604051610bbe9190611290565b60405180910390a3505050565b600073ffffffffffffffffffffffffffffffffffffffff168373ffffffffffffffffffffffffffffffffffffffff161415610c3b576040517f08c379a0000000000000000000000000000000000000000000000000000000008152600401610c3290611230565b60405180910390fd5b600073ffffffffffffffffffffffffffffffffffffffff168273ffffffffffffffffffffffffffffffffffffffff161415610cab576040517f08c379a0000000000000000000000000000000000000000000000000000000008152600401610ca2906111b0565b60405180910390fd5b610cb6838383610e41565b60008060008573ffffffffffffffffffffffffffffffffffffffff1673ffffffffffffffffffffffffffffffffffffffff16815260200190815260200160002054905081811015610d3c576040517f08c379a0000000000000000000000000000000000000000000000000000000008152600401610d33906111f0565b60405180910390fd5b8181036000808673ffffffffffffffffffffffffffffffffffffffff1673ffffffffffffffffffffffffffffffffffffffff16815260200190815260200160002081905550816000808573ffffffffffffffffffffffffffffffffffffffff1673ffffffffffffffffffffffffffffffffffffffff1681526020019081526020016000206000828254610dcf91906112e2565b925050819055508273ffffffffffffffffffffffffffffffffffffffff168473ffffffffffffffffffffffffffffffffffffffff167fddf252ad1be2c89b69c2b068fc378daa952ba7f163c4a11628f55a4df523b3ef84604051610e339190611290565b60405180910390a350505050565b505050565b600081359050610e558161179d565b92915050565b600081359050610e6a816117b4565b92915050565b600060208284031215610e8657610e85611522565b5b6000610e9484828501610e46565b91505092915050565b60008060408385031215610eb457610eb3611522565b5b6000610ec285828601610e46565b9250506020610ed385828601610e46565b9150509250929050565b600080600060608486031215610ef657610ef5611522565b5b6000610f0486828701610e46565b9350506020610f1586828701610e46565b9250506040610f2686828701610e5b565b9150509250925092565b60008060408385031215610f4757610f46611522565b5b6000610f5585828601610e46565b9250506020610f6685828601610e5b565b9150509250929050565b610f798161136c565b82525050565b610f888161137e565b82525050565b610f97816113fa565b82525050565b610fa68161140c565b82525050565b610fb58161141e565b82525050565b6000610fc6826112c6565b610fd081856112d1565b9350610fe0818560208601611430565b610fe981611527565b840191505092915050565b60006110016023836112d1565b915061100c82611538565b604082019050919050565b60006110246022836112d1565b915061102f82611587565b604082019050919050565b60006110476026836112d1565b9150611052826115d6565b604082019050919050565b600061106a6028836112d1565b915061107582611625565b604082019050919050565b600061108d6025836112d1565b915061109882611674565b604082019050919050565b60006110b06024836112d1565b91506110bb826116c3565b604082019050919050565b60006110d36025836112d1565b91506110de82611712565b604082019050919050565b6110f2816113e3565b82525050565b611101816113ed565b82525050565b600060208201905061111c6000830184610f70565b92915050565b60006020820190506111376000830184610f7f565b92915050565b60006020820190506111526000830184610f8e565b92915050565b600060208201905061116d6000830184610f9d565b92915050565b60006020820190506111886000830184610fac565b92915050565b600060208201905081810360008301526111a88184610fbb565b905092915050565b600060208201905081810360008301526111c981610ff4565b9050919050565b600060208201905081810360008301526111e981611017565b9050919050565b600060208201905081810360008301526112098161103a565b9050919050565b600060208201905081810360008301526112298161105d565b9050919050565b6000602082019050818103600083015261124981611080565b9050919050565b60006020820190508181036000830152611269816110a3565b9050919050565b60006020820190508181036000830152611289816110c6565b9050919050565b60006020820190506112a560008301846110e9565b92915050565b60006020820190506112c060008301846110f8565b92915050565b600081519050919050565b600082825260208201905092915050565b60006112ed826113e3565b91506112f8836113e3565b9250827fffffffffffffffffffffffffffffffffffffffffffffffffffffffffffffffff0382111561132d5761132c611495565b5b828201905092915050565b6000611343826113e3565b915061134e836113e3565b92508282101561136157611360611495565b5b828203905092915050565b6000611377826113c3565b9050919050565b60008115159050919050565b600081905061139882611761565b919050565b60008190506113ab82611775565b919050565b60008190506113be82611789565b919050565b600073ffffffffffffffffffffffffffffffffffffffff82169050919050565b6000819050919050565b600060ff82169050919050565b60006114058261138a565b9050919050565b60006114178261139d565b9050919050565b6000611429826113b0565b9050919050565b60005b8381101561144e578082015181840152602081019050611433565b8381111561145d576000848401525b50505050565b6000600282049050600182168061147b57607f821691505b6020821081141561148f5761148e6114f3565b5b50919050565b7f4e487b7100000000000000000000000000000000000000000000000000000000600052601160045260246000fd5b7f4e487b7100000000000000000000000000000000000000000000000000000000600052602160045260246000fd5b7f4e487b7100000000000000000000000000000000000000000000000000000000600052602260045260246000fd5b600080fd5b6000601f19601f8301169050919050565b7f45524332303a207472616e7366657220746f20746865207a65726f206164647260008201527f6573730000000000000000000000000000000000000000000000000000000000602082015250565b7f45524332303a20617070726f766520746f20746865207a65726f20616464726560008201527f7373000000000000000000000000000000000000000000000000000000000000602082015250565b7f45524332303a207472616e7366657220616d6f756e742065786365656473206260008201527f616c616e63650000000000000000000000000000000000000000000000000000602082015250565b7f45524332303a207472616e7366657220616d6f756e742065786365656473206160008201527f6c6c6f77616e6365000000000000000000000000000000000000000000000000602082015250565b7f45524332303a207472616e736665722066726f6d20746865207a65726f20616460008201527f6472657373000000000000000000000000000000000000000000000000000000602082015250565b7f45524332303a20617070726f76652066726f6d20746865207a65726f2061646460008201527f7265737300000000000000000000000000000000000000000000000000000000602082015250565b7f45524332303a2064656372656173656420616c6c6f77616e63652062656c6f7760008201527f207a65726f000000000000000000000000000000000000000000000000000000602082015250565b60028110611772576117716114c4565b5b50565b60028110611786576117856114c4565b5b50565b6002811061179a576117996114c4565b5b50565b6117a68161136c565b81146117b157600080fd5b50565b6117bd816113e3565b81146117c857600080fd5b5056fea26469706673582212207bbcfb8f426fd4727e3febf1463f650874d9075348bfe8796075a3a747fe779e64736f6c63430008050033a2646970667358221220e944ecad44e350d966de8b6c13e41f9047a387de3919ecc5660d56fa722ee90364736f6c63430008050033",
  "immutableReferences": {},
  "source": "// SPDX-License-Identifier: GPL-3.0\npragma solidity ^0.8.0;\n\nimport \"./interfaces/IMeeloOption.sol\";\nimport \"./MeeloOption.sol\";\n\ncontract MeeloOptionFactory {\n\taddress[] public meeloOptions;\n\n\t/// @notice emitted when the factory creates a new Meelo Option\n    event MeeloOptionCreated(\n        address optionAddress,\n        address creator,\n        address indexed underlyingAsset,\n        address indexed strikeAsset,\n        uint256 strikePrice,\n        uint256 expiry,\n        uint256 exerciseWindowDuration,\n        IMeeloOption.OptionType optionType,\n\t\tIMeeloOption.ExerciseType exerciseType,\n\t\tIMeeloOption.UnderlyingAssetType underlyingAssetType\n    );\n\n\tfunction createMeeloOption(\n\t\tstring memory name,\n\t\tstring memory symbol,\n\t\taddress underlyingAsset,\n\t\taddress strikeAsset,\n\t\tuint256 strikePrice,\n\t\tuint256 expiry,\n\t\tuint256 exerciseWindowDuration,\n\t\tIMeeloOption.OptionType optionType,\n\t\tIMeeloOption.ExerciseType exerciseType,\n\t\tIMeeloOption.UnderlyingAssetType underlyingAssetType\n\t) external returns (IMeeloOption) {\n\t\tMeeloOption option = new MeeloOption(\n\t\t\tname,\n\t\t\tsymbol,\n\t\t\tunderlyingAsset,\n\t\t\tstrikeAsset,\n\t\t\tstrikePrice,\n\t\t\texpiry,\n\t\t\texerciseWindowDuration,\n\t\t\toptionType,\n\t\t\texerciseType,\n\t\t\tunderlyingAssetType\n\t\t);\n\n\t\taddress optionAddr = address(option);\n\t\tmeeloOptions.push(optionAddr);\n\n\t\temit MeeloOptionCreated(\n\t\t\toptionAddr,\n\t\t\tmsg.sender,\n\t\t\tunderlyingAsset,\n\t\t\tstrikeAsset,\n\t\t\tstrikePrice,\n\t\t\texpiry,\n\t\t\texerciseWindowDuration,\n\t\t\toptionType,\n\t\t\texerciseType,\n\t\t\tunderlyingAssetType\n\t\t);\n\n\t\treturn option;\n\t} \n}",
  "sourcePath": "/Users/vcrizpy/Desktop/Protocol/contracts/MeeloOptionFactory.sol",
  "compiler": {
    "name": "solc",
    "version": "0.8.5+commit.a4f2e591.Emscripten.clang"
  },
  "schemaVersion": "3.4.1",
  "updatedAt": "2021-06-22T12:14:53.414Z",
  "devdoc": {
    "kind": "dev",
    "methods": {},
    "version": 1
  },
  "userdoc": {
    "events": {
      "MeeloOptionCreated(address,address,address,address,uint256,uint256,uint256,uint8,uint8,uint8)": {
        "notice": "emitted when the factory creates a new Meelo Option"
      }
    },
    "kind": "user",
    "methods": {},
    "version": 1
  }
}